{
  "contractName": "BlackJack",
  "abi": [
    {
      "inputs": [],
      "payable": false,
      "stateMutability": "nonpayable",
      "type": "constructor"
    },
    {
      "anonymous": false,
      "inputs": [
        {
          "indexed": false,
          "internalType": "address",
          "name": "Contract",
          "type": "address"
        },
        {
          "indexed": false,
          "internalType": "address",
          "name": "Player",
          "type": "address"
        },
        {
          "indexed": false,
          "internalType": "uint256",
          "name": "Amount",
          "type": "uint256"
        }
      ],
      "name": "PlayerDeposit",
      "type": "event"
    },
    {
      "anonymous": false,
      "inputs": [
        {
          "indexed": false,
          "internalType": "address",
          "name": "Contract",
          "type": "address"
        },
        {
          "indexed": false,
          "internalType": "address",
          "name": "Player",
          "type": "address"
        },
        {
          "indexed": false,
          "internalType": "uint256",
          "name": "Amount",
          "type": "uint256"
        }
      ],
      "name": "PlayerWithdrawal",
      "type": "event"
    },
    {
      "payable": true,
      "stateMutability": "payable",
      "type": "fallback"
    },
    {
      "constant": true,
      "inputs": [],
      "name": "_gamesPlayed",
      "outputs": [
        {
          "internalType": "uint256",
          "name": "",
          "type": "uint256"
        }
      ],
      "payable": false,
      "stateMutability": "view",
      "type": "function"
    },
    {
      "constant": false,
      "inputs": [
        {
          "internalType": "uint256",
          "name": "bet",
          "type": "uint256"
        }
      ],
      "name": "Initial",
      "outputs": [
        {
          "internalType": "uint256",
          "name": "",
          "type": "uint256"
        }
      ],
      "payable": false,
      "stateMutability": "nonpayable",
      "type": "function"
    },
    {
      "constant": false,
      "inputs": [],
      "name": "payContract",
      "outputs": [
        {
          "internalType": "string",
          "name": "",
          "type": "string"
        }
      ],
      "payable": true,
      "stateMutability": "payable",
      "type": "function"
    },
    {
      "constant": true,
      "inputs": [],
      "name": "Playercard",
      "outputs": [
        {
          "internalType": "uint256",
          "name": "",
          "type": "uint256"
        }
      ],
      "payable": false,
      "stateMutability": "view",
      "type": "function"
    },
    {
      "constant": true,
      "inputs": [],
      "name": "PlayerBet",
      "outputs": [
        {
          "internalType": "uint256",
          "name": "",
          "type": "uint256"
        }
      ],
      "payable": false,
      "stateMutability": "view",
      "type": "function"
    },
    {
      "constant": false,
      "inputs": [
        {
          "internalType": "uint256",
          "name": "bet",
          "type": "uint256"
        }
      ],
      "name": "placeBet",
      "outputs": [
        {
          "internalType": "string",
          "name": "",
          "type": "string"
        }
      ],
      "payable": false,
      "stateMutability": "nonpayable",
      "type": "function"
    },
    {
      "constant": false,
      "inputs": [],
      "name": "cashOut",
      "outputs": [
        {
          "internalType": "string",
          "name": "",
          "type": "string"
        }
      ],
      "payable": false,
      "stateMutability": "nonpayable",
      "type": "function"
    },
    {
      "constant": false,
      "inputs": [],
      "name": "hit",
      "outputs": [
        {
          "internalType": "string",
          "name": "",
          "type": "string"
        }
      ],
      "payable": false,
      "stateMutability": "nonpayable",
      "type": "function"
    },
    {
      "constant": false,
      "inputs": [],
      "name": "stand",
      "outputs": [
        {
          "internalType": "string",
          "name": "",
          "type": "string"
        }
      ],
      "payable": false,
      "stateMutability": "nonpayable",
      "type": "function"
    },
    {
      "constant": false,
      "inputs": [],
      "name": "doubleDown",
      "outputs": [
        {
          "internalType": "string",
          "name": "",
          "type": "string"
        }
      ],
      "payable": false,
      "stateMutability": "nonpayable",
      "type": "function"
    },
    {
      "constant": false,
      "inputs": [],
      "name": "split",
      "outputs": [
        {
          "internalType": "string",
          "name": "",
          "type": "string"
        }
      ],
      "payable": false,
      "stateMutability": "nonpayable",
      "type": "function"
    },
    {
      "constant": false,
      "inputs": [],
      "name": "insurance",
      "outputs": [
        {
          "internalType": "string",
          "name": "",
          "type": "string"
        }
      ],
      "payable": false,
      "stateMutability": "nonpayable",
      "type": "function"
    },
    {
      "constant": true,
      "inputs": [],
      "name": "displayTable",
      "outputs": [
        {
          "internalType": "string",
          "name": "Message",
          "type": "string"
        },
        {
          "internalType": "uint256",
          "name": "PlayerBet",
          "type": "uint256"
        },
        {
          "internalType": "uint256",
          "name": "PlayerCard1",
          "type": "uint256"
        },
        {
          "internalType": "uint256",
          "name": "PlayerCard2",
          "type": "uint256"
        },
        {
          "internalType": "uint256",
          "name": "PlayerNewCard",
          "type": "uint256"
        },
        {
          "internalType": "uint256",
          "name": "PlayerCardTotal",
          "type": "uint256"
        },
        {
          "internalType": "uint256",
          "name": "PlayerSplitTotal",
          "type": "uint256"
        },
        {
          "internalType": "uint256",
          "name": "DealerCard1",
          "type": "uint256"
        },
        {
          "internalType": "uint256",
          "name": "DealerCard2",
          "type": "uint256"
        },
        {
          "internalType": "uint256",
          "name": "DealerNewCard1",
          "type": "uint256"
        },
        {
          "internalType": "uint256",
          "name": "DealerNewCard2",
          "type": "uint256"
        },
        {
          "internalType": "uint256",
          "name": "DealerCardTotal",
          "type": "uint256"
        },
        {
          "internalType": "uint256",
          "name": "Pot",
          "type": "uint256"
        }
      ],
      "payable": false,
      "stateMutability": "view",
      "type": "function"
    }
  ],
  "bytecode": "0x6080604052620f42406001553480156200001857600080fd5b5060008060146101000a81548160ff021916908315150217905550600160058190555060006012819055506040518060600160405280603b815260200162003c4a603b913960139080519060200190620000749291906200007b565b506200012a565b828054600181600116156101000203166002900490600052602060002090601f016020900481019282601f10620000be57805160ff1916838001178555620000ef565b82800160010185558215620000ef579182015b82811115620000ee578251825591602001919060010190620000d1565b5b509050620000fe919062000102565b5090565b6200012791905b808211156200012357600081600090555060010162000109565b5090565b90565b613b10806200013a6000396000f3fe6080604052600436106100c25760003560e01c8063793cd71e1161007f578063a7e1f6a211610059578063a7e1f6a21461063a578063c2897b10146106ca578063ecb0b8621461075a578063f7654176146107dd576100c2565b8063793cd71e1461043657806388b02acd146104c657806389cf3204146105aa576100c2565b806310fe7c4814610222578063111a319a146102d65780632ae3594a146103015780633e396f3014610391578063753afb3f146103bc578063765b3697146103e7575b600073ffffffffffffffffffffffffffffffffffffffff163373ffffffffffffffffffffffffffffffffffffffff161415610165576040517f08c379a00000000000000000000000000000000000000000000000000000000081526004018080602001828103825260108152602001807f496e76616c696420416464726573732e0000000000000000000000000000000081525060200191505060405180910390fd5b60001515600060149054906101000a900460ff161515146101d1576040517f08c379a00000000000000000000000000000000000000000000000000000000081526004018080602001828103825260388152602001806137c16038913960400191505060405180910390fd5b6040517f08c379a000000000000000000000000000000000000000000000000000000000815260040180806020018281038252602781526020018061382a6027913960400191505060405180910390fd5b34801561022e57600080fd5b5061025b6004803603602081101561024557600080fd5b810190808035906020019092919050505061086d565b6040518080602001828103825283818151815260200191508051906020019080838360005b8381101561029b578082015181840152602081019050610280565b50505050905090810190601f1680156102c85780820380516001836020036101000a031916815260200191505b509250505060405180910390f35b3480156102e257600080fd5b506102eb610d64565b6040518082815260200191505060405180910390f35b34801561030d57600080fd5b50610316610d6e565b6040518080602001828103825283818151815260200191508051906020019080838360005b8381101561035657808201518184015260208101905061033b565b50505050905090810190601f1680156103835780820380516001836020036101000a031916815260200191505b509250505060405180910390f35b34801561039d57600080fd5b506103a6611057565b6040518082815260200191505060405180910390f35b3480156103c857600080fd5b506103d1611061565b6040518082815260200191505060405180910390f35b3480156103f357600080fd5b506104206004803603602081101561040a57600080fd5b8101908080359060200190929190505050611067565b6040518082815260200191505060405180910390f35b34801561044257600080fd5b5061044b611086565b6040518080602001828103825283818151815260200191508051906020019080838360005b8381101561048b578082015181840152602081019050610470565b50505050905090810190601f1680156104b85780820380516001836020036101000a031916815260200191505b509250505060405180910390f35b3480156104d257600080fd5b506104db61144e565b60405180806020018e81526020018d81526020018c81526020018b81526020018a815260200189815260200188815260200187815260200186815260200185815260200184815260200183815260200182810382528f818151815260200191508051906020019080838360005b83811015610563578082015181840152602081019050610548565b50505050905090810190601f1680156105905780820380516001836020036101000a031916815260200191505b509e50505050505050505050505050505060405180910390f35b3480156105b657600080fd5b506105bf611567565b6040518080602001828103825283818151815260200191508051906020019080838360005b838110156105ff5780820151818401526020810190506105e4565b50505050905090810190601f16801561062c5780820380516001836020036101000a031916815260200191505b509250505060405180910390f35b34801561064657600080fd5b5061064f6117dd565b6040518080602001828103825283818151815260200191508051906020019080838360005b8381101561068f578082015181840152602081019050610674565b50505050905090810190601f1680156106bc5780820380516001836020036101000a031916815260200191505b509250505060405180910390f35b3480156106d657600080fd5b506106df611ae7565b6040518080602001828103825283818151815260200191508051906020019080838360005b8381101561071f578082015181840152602081019050610704565b50505050905090810190601f16801561074c5780820380516001836020036101000a031916815260200191505b509250505060405180910390f35b610762612498565b6040518080602001828103825283818151815260200191508051906020019080838360005b838110156107a2578082015181840152602081019050610787565b50505050905090810190601f1680156107cf5780820380516001836020036101000a031916815260200191505b509250505060405180910390f35b3480156107e957600080fd5b506107f26128c1565b6040518080602001828103825283818151815260200191508051906020019080838360005b83811015610832578082015181840152602081019050610817565b50505050905090810190601f16801561085f5780820380516001836020036101000a031916815260200191505b509250505060405180910390f35b6060600073ffffffffffffffffffffffffffffffffffffffff163373ffffffffffffffffffffffffffffffffffffffff161415610912576040517f08c379a00000000000000000000000000000000000000000000000000000000081526004018080602001828103825260108152602001807f496e76616c696420416464726573732e0000000000000000000000000000000081525060200191505060405180910390fd5b6000809054906101000a900473ffffffffffffffffffffffffffffffffffffffff1673ffffffffffffffffffffffffffffffffffffffff163373ffffffffffffffffffffffffffffffffffffffff16146109b7576040517f08c379a00000000000000000000000000000000000000000000000000000000081526004018080602001828103825260228152602001806139b16022913960400191505060405180910390fd5b60001515600060149054906101000a900460ff16151514610a23576040517f08c379a00000000000000000000000000000000000000000000000000000000081526004018080602001828103825260388152602001806137c16038913960400191505060405180910390fd5b6000801515600060169054906101000a900460ff161515148015610a5a575060001515600060199054906101000a900460ff161515145b8015610a79575060001515600060179054906101000a900460ff161515145b15610a875760006007819055505b82905060018110158015610a9d57506103e88111155b610b0f576040517f08c379a00000000000000000000000000000000000000000000000000000000081526004018080602001828103825260208152602001807f426574204c696d69747320617265203120776569202d2031303030207765692e81525060200191505060405180910390fd5b600254811115610b6a576040517f08c379a000000000000000000000000000000000000000000000000000000000815260040180806020018281038252602f815260200180613a72602f913960400191505060405180910390fd5b8060026000828254039250508190555060001515600060179054906101000a900460ff1615151415610ba757806007600082825401925050819055505b6001600060146101000a81548160ff021916908315150217905550600160126000828254019250508190555060001515600060169054906101000a900460ff161515148015610c09575060001515600060199054906101000a900460ff161515145b8015610c28575060001515600060179054906101000a900460ff161515145b15610c3d57610c35612c8e565b915050610d5f565b60011515600060179054906101000a900460ff1615151415610c745760008060176101000a81548160ff0219169083151502179055505b6040518060400160405280600b81526020017f42657420506c616365642e00000000000000000000000000000000000000000081525060139080519060200190610cbf92919061371b565b5060138054600181600116156101000203166002900480601f016020809104026020016040519081016040528092919081815260200182805460018160011615610100020316600290048015610d565780601f10610d2b57610100808354040283529160200191610d56565b820191906000526020600020905b815481529060010190602001808311610d3957829003601f168201915b50505050509150505b919050565b6000600854905090565b6060600073ffffffffffffffffffffffffffffffffffffffff163373ffffffffffffffffffffffffffffffffffffffff161415610e13576040517f08c379a00000000000000000000000000000000000000000000000000000000081526004018080602001828103825260108152602001807f496e76616c696420416464726573732e0000000000000000000000000000000081525060200191505060405180910390fd5b6000809054906101000a900473ffffffffffffffffffffffffffffffffffffffff1673ffffffffffffffffffffffffffffffffffffffff163373ffffffffffffffffffffffffffffffffffffffff1614610eb8576040517f08c379a00000000000000000000000000000000000000000000000000000000081526004018080602001828103825260228152602001806139b16022913960400191505060405180910390fd5b60011515600060149054906101000a900460ff16151514610f24576040517f08c379a000000000000000000000000000000000000000000000000000000000815260040180806020018281038252603a8152602001806138fa603a913960400191505060405180910390fd5b610f2c613290565b610f346133c3565b600a819055506001600a54148015610f4d5750600b8054105b15610f5b57600b600a819055505b600115156000601a9054906101000a900460ff1615151415610f9957600a54600c60008282540192505081905550610f94600c5461345c565b610fb7565b600a54600b60008282540192505081905550610fb6600b5461345c565b5b60138054600181600116156101000203166002900480601f01602080910402602001604051908101604052809291908181526020018280546001816001161561010002031660029004801561104d5780601f106110225761010080835404028352916020019161104d565b820191906000526020600020905b81548152906001019060200180831161103057829003601f168201915b5050505050905090565b6000600754905090565b60125481565b6000611071612498565b5061107b8261086d565b506007549050919050565b6060600073ffffffffffffffffffffffffffffffffffffffff163373ffffffffffffffffffffffffffffffffffffffff16141561112b576040517f08c379a00000000000000000000000000000000000000000000000000000000081526004018080602001828103825260108152602001807f496e76616c696420416464726573732e0000000000000000000000000000000081525060200191505060405180910390fd5b6000809054906101000a900473ffffffffffffffffffffffffffffffffffffffff1673ffffffffffffffffffffffffffffffffffffffff163373ffffffffffffffffffffffffffffffffffffffff16146111d0576040517f08c379a00000000000000000000000000000000000000000000000000000000081526004018080602001828103825260228152602001806139b16022913960400191505060405180910390fd5b60001515600060149054906101000a900460ff1615151461123c576040517f08c379a00000000000000000000000000000000000000000000000000000000081526004018080602001828103825260388152602001806137c16038913960400191505060405180910390fd5b600080905060035460025411611280576040518060800160405280605b81526020016139d3605b91396013908051906020019061127a92919061371b565b506112b0565b6040518060600160405280603181526020016137f960319139601390805190602001906112ae92919061371b565b505b7fe0a8c12c9ce2961ed459caa60890ed98940cb497d4c98ebd1ddae1c1c97c66ea3033600354604051808473ffffffffffffffffffffffffffffffffffffffff1673ffffffffffffffffffffffffffffffffffffffff1681526020018373ffffffffffffffffffffffffffffffffffffffff1673ffffffffffffffffffffffffffffffffffffffff168152602001828152602001935050505060405180910390a16000600281905550600354905060006003819055503373ffffffffffffffffffffffffffffffffffffffff166108fc829081150290604051600060405180830381858888f193505050501580156113ac573d6000803e3d6000fd5b5060138054600181600116156101000203166002900480601f0160208091040260200160405190810160405280929190818152602001828054600181600116156101000203166002900480156114435780601f1061141857610100808354040283529160200191611443565b820191906000526020600020905b81548152906001019060200180831161142657829003601f168201915b505050505091505090565b60606000806000806000806000806000806000806013600754600854600954600a54600b54600c54600d54600e54600f60006002811061148a57fe5b0154600f60016002811061149a57fe5b01546011546002548c8054600181600116156101000203166002900480601f0160208091040260200160405190810160405280929190818152602001828054600181600116156101000203166002900480156115375780601f1061150c57610100808354040283529160200191611537565b820191906000526020600020905b81548152906001019060200180831161151a57829003601f168201915b50505050509c509c509c509c509c509c509c509c509c509c509c509c509c509c50909192939495969798999a9b9c565b6060600073ffffffffffffffffffffffffffffffffffffffff163373ffffffffffffffffffffffffffffffffffffffff16141561160c576040517f08c379a00000000000000000000000000000000000000000000000000000000081526004018080602001828103825260108152602001807f496e76616c696420416464726573732e0000000000000000000000000000000081525060200191505060405180910390fd5b6000809054906101000a900473ffffffffffffffffffffffffffffffffffffffff1673ffffffffffffffffffffffffffffffffffffffff163373ffffffffffffffffffffffffffffffffffffffff16146116b1576040517f08c379a00000000000000000000000000000000000000000000000000000000081526004018080602001828103825260228152602001806139b16022913960400191505060405180910390fd5b60011515600060149054906101000a900460ff1615151461171d576040517f08c379a000000000000000000000000000000000000000000000000000000000815260040180806020018281038252603a8152602001806138fa603a913960400191505060405180910390fd5b60011515600060179054906101000a900460ff16151514611789576040517f08c379a00000000000000000000000000000000000000000000000000000000081526004018080602001828103825260278152602001806138b16027913960400191505060405180910390fd5b600060026007548161179757fe5b0490506001600060186101000a81548160ff02191690831515021790555060008060146101000a81548160ff0219169083151502179055506117d88161086d565b505090565b6060600073ffffffffffffffffffffffffffffffffffffffff163373ffffffffffffffffffffffffffffffffffffffff161415611882576040517f08c379a00000000000000000000000000000000000000000000000000000000081526004018080602001828103825260108152602001807f496e76616c696420416464726573732e0000000000000000000000000000000081525060200191505060405180910390fd5b6000809054906101000a900473ffffffffffffffffffffffffffffffffffffffff1673ffffffffffffffffffffffffffffffffffffffff163373ffffffffffffffffffffffffffffffffffffffff1614611927576040517f08c379a00000000000000000000000000000000000000000000000000000000081526004018080602001828103825260228152602001806139b16022913960400191505060405180910390fd5b60011515600060149054906101000a900460ff16151514611993576040517f08c379a000000000000000000000000000000000000000000000000000000000815260040180806020018281038252603a8152602001806138fa603a913960400191505060405180910390fd5b60011515600060169054906101000a900460ff161515146119ff576040517f08c379a00000000000000000000000000000000000000000000000000000000081526004018080602001828103825260248152602001806139686024913960400191505060405180910390fd5b60011515600060199054906101000a900460ff1615151415611a365760008060196101000a81548160ff0219169083151502179055505b60011515600060179054906101000a900460ff1615151415611a6d5760008060176101000a81548160ff0219169083151502179055505b6000600754905060008060146101000a81548160ff021916908315150217905550611a978161086d565b50611aa06133c3565b600a819055506001600a54148015611ab95750600b8054105b15611ac757600b600a819055505b600a54600b60008282540192505081905550611ae1611ae7565b91505090565b6060600073ffffffffffffffffffffffffffffffffffffffff163373ffffffffffffffffffffffffffffffffffffffff161415611b8c576040517f08c379a00000000000000000000000000000000000000000000000000000000081526004018080602001828103825260108152602001807f496e76616c696420416464726573732e0000000000000000000000000000000081525060200191505060405180910390fd5b6000809054906101000a900473ffffffffffffffffffffffffffffffffffffffff1673ffffffffffffffffffffffffffffffffffffffff163373ffffffffffffffffffffffffffffffffffffffff1614611c31576040517f08c379a00000000000000000000000000000000000000000000000000000000081526004018080602001828103825260228152602001806139b16022913960400191505060405180910390fd5b60011515600060149054906101000a900460ff16151514611c9d576040517f08c379a000000000000000000000000000000000000000000000000000000000815260040180806020018281038252603a8152602001806138fa603a913960400191505060405180910390fd5b611ca5613290565b60026004541015611d8a57611cb86133c3565b600e819055506001600e54148015611cd25750600b600d54105b15611ce057600b600e819055505b600e54600d540160118190555060008090505b601180541015611d8857611d056133c3565b600f8260028110611d1257fe5b01819055506001600f8260028110611d2657fe5b0154148015611d375750600b601154105b15611d5157600b600f8260028110611d4b57fe5b01819055505b600f8160028110611d5e57fe5b01546011600082825401925050819055506001810190506001811115611d8357600090505b611cf3565b505b60156011541415611f4e576015600b541480611da857506015600c54145b15611e10576040518060400160405280600e81526020017f202d2d3e205374616e644f66662100000000000000000000000000000000000081525060139080519060200190611df892919061371b565b50600754600260008282540192505081905550611f49565b600115156000601a9054906101000a900460ff1615151415611e8e5760016004600082825401925050819055506040518060400160405280601381526020017f202d2d3e20506c617965722773205475726e2e0000000000000000000000000081525060139080519060200190611e8892919061371b565b50611f48565b6040518060400160405280601c81526020017f202d2d3e20426c61636b4a61636b21204465616c65722057696e732e0000000081525060139080519060200190611ed992919061371b565b5060008060146101000a81548160ff02191690831515021790555060011515600060189054906101000a900460ff1615151415611f475760008060186101000a81548160ff021916908315150217905550600260075481611f3657fe5b046002600082825401925050819055505b5b5b6123f8565b6015601154111561206d57600115156000601a9054906101000a900460ff1615151415611fec5760016004600082825401925050819055506040518060400160405280601381526020017f202d2d3e20506c617965722773205475726e2e0000000000000000000000000081525060139080519060200190611fd192919061371b565b50600260075402600260008282540192505081905550612068565b6040518060400160405280601e81526020017f202d2d3e204465616c657220427573742e20506c617965722057696e732e00008152506013908051906020019061203792919061371b565b5060026007540260026000828254019250508190555060008060146101000a81548160ff0219169083151502179055505b6123f7565b6015600b54116123a957600b54601503601154601503101561217357600115156000601a9054906101000a900460ff16151514156121075760016004600082825401925050819055506040518060400160405280601381526020017f202d2d3e20506c617965722773205475726e2e000000000000000000000000008152506013908051906020019061210192919061371b565b5061216e565b6040518060400160405280601181526020017f202d2d3e204465616c65722057696e732e0000000000000000000000000000008152506013908051906020019061215292919061371b565b5060008060146101000a81548160ff0219169083151502179055505b6123a4565b600b54601503601154601503111561229957600115156000601a9054906101000a900460ff16151514156122185760016004600082825401925050819055506040518060400160405280601381526020017f202d2d3e20506c617965722773205475726e2e00000000000000000000000000815250601390805190602001906121fd92919061371b565b50600260075402600260008282540192505081905550612294565b6040518060400160405280601181526020017f202d2d3e20506c617965722057696e732e0000000000000000000000000000008152506013908051906020019061226392919061371b565b5060026007540260026000828254019250508190555060008060146101000a81548160ff0219169083151502179055505b6123a3565b600115156000601a9054906101000a900460ff16151514156123295760016004600082825401925050819055506040518060400160405280601381526020017f202d2d3e20506c617965722773205475726e2e000000000000000000000000008152506013908051906020019061231192919061371b565b506007546002600082825401925050819055506123a2565b6040518060400160405280600e81526020017f202d2d3e205374616e644f6666210000000000000000000000000000000000008152506013908051906020019061237492919061371b565b5060008060146101000a81548160ff0219169083151502179055506007546002600082825401925050819055505b5b5b6123f6565b6040518060400160405280601e81526020017f202d2d3e20506c61796572204275737421204465616c65722057696e732e0000815250601390805190602001906123f492919061371b565b505b5b5b60138054600181600116156101000203166002900480601f01602080910402602001604051908101604052809291908181526020018280546001816001161561010002031660029004801561248e5780601f106124635761010080835404028352916020019161248e565b820191906000526020600020905b81548152906001019060200180831161247157829003601f168201915b5050505050905090565b6060600073ffffffffffffffffffffffffffffffffffffffff163373ffffffffffffffffffffffffffffffffffffffff16141561253d576040517f08c379a00000000000000000000000000000000000000000000000000000000081526004018080602001828103825260108152602001807f496e76616c696420416464726573732e0000000000000000000000000000000081525060200191505060405180910390fd5b60001515600060149054906101000a900460ff161515146125a9576040517f08c379a00000000000000000000000000000000000000000000000000000000081526004018080602001828103825260388152602001806137c16038913960400191505060405180910390fd5b6000600254111561265a573373ffffffffffffffffffffffffffffffffffffffff166000809054906101000a900473ffffffffffffffffffffffffffffffffffffffff1673ffffffffffffffffffffffffffffffffffffffff1614612659576040517f08c379a00000000000000000000000000000000000000000000000000000000081526004018080602001828103825260228152602001806138d86022913960400191505060405180910390fd5b5b600154346002540111156126d6576040517f08c379a000000000000000000000000000000000000000000000000000000000815260040180806020018281038252600f8152602001807f546f6f206d75636820457468657221000000000000000000000000000000000081525060200191505060405180910390fd5b3460026000828254019250508190555034600360008282540192505081905550336000806101000a81548173ffffffffffffffffffffffffffffffffffffffff021916908373ffffffffffffffffffffffffffffffffffffffff1602179055507f8543421172354d1c957fb6ac1c05fc1d9b1ec4fdecbb751a836394a27357c898303334604051808473ffffffffffffffffffffffffffffffffffffffff1673ffffffffffffffffffffffffffffffffffffffff1681526020018373ffffffffffffffffffffffffffffffffffffffff1673ffffffffffffffffffffffffffffffffffffffff168152602001828152602001935050505060405180910390a16040518060400160405280600e81526020017f436f6e747261637420506169642e0000000000000000000000000000000000008152506013908051906020019061282092919061371b565b5060138054600181600116156101000203166002900480601f0160208091040260200160405190810160405280929190818152602001828054600181600116156101000203166002900480156128b75780601f1061288c576101008083540402835291602001916128b7565b820191906000526020600020905b81548152906001019060200180831161289a57829003601f168201915b5050505050905090565b6060600073ffffffffffffffffffffffffffffffffffffffff163373ffffffffffffffffffffffffffffffffffffffff161415612966576040517f08c379a00000000000000000000000000000000000000000000000000000000081526004018080602001828103825260108152602001807f496e76616c696420416464726573732e0000000000000000000000000000000081525060200191505060405180910390fd5b6000809054906101000a900473ffffffffffffffffffffffffffffffffffffffff1673ffffffffffffffffffffffffffffffffffffffff163373ffffffffffffffffffffffffffffffffffffffff1614612a0b576040517f08c379a00000000000000000000000000000000000000000000000000000000081526004018080602001828103825260228152602001806139b16022913960400191505060405180910390fd5b60011515600060149054906101000a900460ff16151514612a77576040517f08c379a000000000000000000000000000000000000000000000000000000000815260040180806020018281038252603a8152602001806138fa603a913960400191505060405180910390fd5b60011515600060199054906101000a900460ff16151514612b00576040517f08c379a000000000000000000000000000000000000000000000000000000000815260040180806020018281038252601e8152602001807f506c617965722063616e6e6f742053706c6974207269676874206e6f772e000081525060200191505060405180910390fd5b60011515600060169054906101000a900460ff1615151415612b375760008060166101000a81548160ff0219169083151502179055505b60011515600060179054906101000a900460ff1615151415612b6e5760008060176101000a81548160ff0219169083151502179055505b600b6008541415612b8d57600b8081905550600b600c81905550612baa565b6002600b5481612b9957fe5b04600b81905550600b54600c819055505b6000600754905060008060146101000a81548160ff021916908315150217905550612bd48161086d565b5060016000601a6101000a81548160ff02191690831515021790555060008060196101000a81548160ff021916908315150217905550600b6008541415612c8a57612c1d6133c3565b600a81905550600a54600c60008282540192505081905550612c3d611ae7565b50600080601a6101000a81548160ff0219169083151502179055506002600481905550612c686133c3565b600a81905550600a54600b60008282540192505081905550612c88611ae7565b505b5090565b6060600060088190555060006009819055506000600a819055506000600b819055506000600c819055506000600d819055506000600e819055506000600f600060028110612cd857fe5b01819055506000600f600160028110612ced57fe5b0181905550600060118190555060008060166101000a81548160ff02191690831515021790555060008060196101000a81548160ff02191690831515021790555060008060176101000a81548160ff0219169083151502179055506000600481905550612d586133c3565b60088190555060016008541415612d7257600b6008819055505b612d7a6133c3565b600d81905550612d886133c3565b6009819055506001600954148015612da25750600b600854105b15612db057600b6009819055505b60095460085401600b819055506001600d541415612e38576040518060400160405280601581526020017f202d2d3e2057616e7420496e737572616e63653f2e000000000000000000000081525060139080519060200190612e1392919061371b565b50600b600d819055506001600060176101000a81548160ff0219169083151502179055505b600e54600d54016011819055506015600b541415612fa357600a600d541415612e8b57612e636133c3565b600e819055506001600e541415612e7d57600b600e819055505b600e54600d54016011819055505b600b546011541415612f14576040518060400160405280600e81526020017f202d2d3e205374616e644f66662100000000000000000000000000000000000081525060139080519060200190612ee292919061371b565b5060075460026000828254019250508190555060008060146101000a81548160ff021916908315150217905550612f9e565b6040518060400160405280601c81526020017f202d2d3e20426c61636b4a61636b2120506c617965722057696e732e0000000081525060139080519060200190612f5f92919061371b565b50600260075481612f6c57fe5b046002600754020160026000828254019250508190555060008060146101000a81548160ff0219169083151502179055505b612ff0565b6040518060400160405280601381526020017f202d2d3e20506c617965722773205475726e2e0000000000000000000000000081525060139080519060200190612fee92919061371b565b505b60095460085414156130985760011515600060179054906101000a900460ff161515141561304c57604051806060016040528060358152602001613851603591396013908051906020019061304692919061371b565b5061307c565b60405180606001604052806025815260200161398c602591396013908051906020019061307a92919061371b565b505b6001600060196101000a81548160ff0219169083151502179055505b6009600b5414806130ab5750600a600b54145b806130b75750600b8054145b156131f05760011515600060179054906101000a900460ff1615151415613158576040518060600160405280603b8152602001613aa1603b91396013908051906020019061310692919061371b565b5060011515600060199054906101000a900460ff161515141561315357604051806080016040528060448152602001613a2e604491396013908051906020019061315192919061371b565b505b6131d4565b6040518060600160405280602b8152602001613886602b91396013908051906020019061318692919061371b565b5060011515600060199054906101000a900460ff16151514156131d35760405180606001604052806034815260200161393460349139601390805190602001906131d192919061371b565b505b5b6001600060166101000a81548160ff0219169083151502179055505b60138054600181600116156101000203166002900480601f0160208091040260200160405190810160405280929190818152602001828054600181600116156101000203166002900480156132865780601f1061325b57610100808354040283529160200191613286565b820191906000526020600020905b81548152906001019060200180831161326957829003601f168201915b5050505050905090565b60011515600060169054906101000a900460ff16151514156132c75760008060166101000a81548160ff0219169083151502179055505b60011515600060199054906101000a900460ff16151514806132fc5750600115156000601a9054906101000a900460ff161515145b1561338a5760026004541061334457600080601a6101000a81548160ff02191690831515021790555060008060196101000a81548160ff021916908315150217905550613389565b600115156000601a9054906101000a900460ff161515141561336d576001600481905550613388565b60008060196101000a81548160ff0219169083151502179055505b5b5b60011515600060179054906101000a900460ff16151514156133c15760008060176101000a81548160ff0219169083151502179055505b565b6000806002600560008282540292505081905550600554420390506001600d60014303408360405160200180838152602001828152602001925050506040516020818303038152906040528051906020012060001c8161341f57fe5b0601600681905550600a600654111561343b57600a6006819055505b631908b1006005541115613453576006546005819055505b60065491505090565b60158114156135e657600a600d541061348b576134776133c3565b600e81905550600e54600d54016011819055505b806011541415613565576040518060400160405280600e81526020017f202d2d3e205374616e644f666621000000000000000000000000000000000000815250601390805190602001906134e092919061371b565b5060011515600060189054906101000a900460ff16151514156135345760008060186101000a81548160ff02191690831515021790555060026007548161352357fe5b046002600082825401925050819055505b60075460026000828254019250508190555060008060146101000a81548160ff0219169083151502179055506135e1565b6040518060400160405280601c81526020017f202d2d3e20426c61636b4a61636b2120506c617965722057696e732e00000000815250601390805190602001906135b092919061371b565b5060026007540260026000828254019250508190555060008060146101000a81548160ff0219169083151502179055505b613718565b60158111156136ca576040518060400160405280601e81526020017f202d2d3e20506c61796572204275737421204465616c65722057696e732e00008152506013908051906020019061363a92919061371b565b5060011515600060189054906101000a900460ff16151514156136ab5760008060186101000a81548160ff0219169083151502179055506136796133c3565b600e81905550600e54600d5401601181905550601560115414156136aa576007546002600082825401925050819055505b5b60008060146101000a81548160ff021916908315150217905550613717565b6040518060400160405280601381526020017f202d2d3e20506c617965722773205475726e2e000000000000000000000000008152506013908051906020019061371592919061371b565b505b5b50565b828054600181600116156101000203166002900490600052602060002090601f016020900481019282601f1061375c57805160ff191683800117855561378a565b8280016001018555821561378a579182015b8281111561378957825182559160200191906001019061376e565b5b509050613797919061379b565b5090565b6137bd91905b808211156137b95760008160009055506001016137a1565b5090565b9056fe546869732046756e6374696f6e2063616e6e6f742062652075736564207768696c6520726f756e6420697320696e2070726f67726573732e596f7520617265206120776f7274687920616476657361727921204f726967696e616c206265742072657475726e65642e506c656173652075736520506179436f6e74726163742046756e6374696f6e20746f207061792e202d2d3e20506c617965722773205475726e2e2057616e7420496e737572616e63653f20506c617965722063616e2053706c69742e202d2d3e20506c617965722773205475726e2e20506c617965722063616e20446f75626c6520446f776e2e506c617965722063616e6e6f74206861766520696e737572616e6365207269676874206e6f772e4f6e6c7920506c617965722063616e20706179207468697320636f6e74726163742e546869732046756e6374696f6e2063616e206f6e6c792062652075736564207768696c6520726f756e6420697320696e2070726f67726573732e202d2d3e20506c617965722773205475726e2e20506c617965722063616e2053706c6974206f7220446f75626c6520446f776e2e506c617965722063616e6e6f7420446f75626c6520446f776e207269676874206e6f772e202d2d3e20506c617965722773205475726e2e20506c617965722063616e2053706c69742e4f6e6c7920506c617965722063616e2075736520746869732066756e6374696f6e2e596f7520776f756c642068617665206c6f73742045746865722120476f6f64207468696e672049276d20612067656e65726f757320736d61727420636f6e74726163742e204f726967696e616c206265742072657475726e65642e202d2d3e20506c617965722773205475726e2e2057616e7420496e737572616e63653f20506c617965722063616e2053706c6974206f7220446f75626c6520446f776e2e536f7272792c20596f7520646f6e2774206861766520656e6f75676820746f20706c6163652074686174206265742e202d2d3e20506c617965722773205475726e2e2057616e7420496e737572616e63653f20506c617965722063616e20446f75626c6520446f776e2ea265627a7a723158207d2ca3f5b0e0773c83dd09de601e6a82d86d4c450e0b87a67194f47baf466f6a64736f6c63430005100032202d2d3e20426574204c696d6974733a203120776569202d2031303030207765692e202057616974696e6720666f7220506c61796572204265742e",
  "source": "pragma solidity >=0.4.21 <0.7.0;\n//BlackJack.sol\n//Jay Ofemi\n//BlackJack smart contract\n//06/23/2018\n\n\n//RULES:\n\n//Split Under 21 Rule\n//Modified split: If either of the player's hand \n//in a split beats dealer, player wins bet on both hands automatically\n//But if Player busts on either deck, Dealer wins bet on both decks.\n//If player's first hand has a standoff with dealer, player's other hand\n//must beat dealer, otherwise dealer wins\n//If player's second hand stands off with dealer,\n//player gets original bet back\n\n//Player can either double down or split, player cannot split\n//then double down and vice versa\n\n\n//BlackJack contract\ncontract BlackJack {\n    //state variables\n    address private _player;\n    \n    bool private _roundInProgress;\n    bool private _displayUpdate;\n    bool private _dDown;\n    bool private _insurance;\n    bool private _insured;\n    bool private _split;\n    bool private _splitting;\n    \n    uint256 private _ethLimit = 1000000 wei;\n    uint256 private _safeBalance;\n    uint256 private _origBalance;\n    uint256 private _splitCount;\n    uint256 private _rngCounter;\n    uint256 private _randNum;\n    uint256 private _pBet;\n    uint256 private _pCard1;\n    uint256 private _pCard2;\n    uint256 private _pNewCard;\n    uint256 private _pCardTotal;\n    uint256 private _pSplitTotal;\n    uint256 private _dCard1;\n    uint256 private _dCard2;\n    uint256[2] private _dNewCard;\n    uint256 private _dCardTotal;\n    uint256 public _gamesPlayed;\n    \n    string private _dMsg;\n    \n    ///-----------event logging-------------///\n    event PlayerDeposit(address Contract, address Player, uint256 Amount);\n    event PlayerWithdrawal(address Contract, address Player, uint256 Amount);\n    \n    ///--------Modifiers----------///\n    //make sure address is Valid\n    modifier isValidAddr() {\n        require(msg.sender != address(0), \"Invalid Address.\");\n        _;\n    }\n    \n    //make sure address is Player\n    modifier isPlayer() {\n        require(msg.sender == _player, \"Only Player can use this function.\");\n        _;\n    }\n    \n    //make sure function can only be used while round in progress\n    modifier playerTurn() {\n        require(_roundInProgress == true, \"This Function can only be used while round is in progress.\");\n        _;\n    }\n    \n    //make sure function cannot be used while round in progress\n    modifier newRound() {\n        require(_roundInProgress == false, \"This Function cannot be used while round is in progress.\");\n        _;\n    }\n    \n    \n    \n    ///******constructor********///\n    constructor() public {\n        _roundInProgress = false;\n        _rngCounter = 1;\n        _gamesPlayed = 0;\n        \n        _dMsg = \" --> Bet Limits: 1 wei - 1000 wei.  Waiting for Player Bet.\";\n    }\n    \n    \n    ///*********fallback - Unused***********///\n    function () isValidAddr newRound external payable {\n        //Players must use PayContract function to pay\n        revert(\"Please use PayContract Function to pay.\");\n    }\n\n\n    ///*********************initial the game***********************///\n    function Initial(uint256 bet) public returns (uint256) {\n        payContract();\n        placeBet(bet);\n\n        return _pBet;\n    }\n    \n    \n    ///************pay the contract*************///\n    function payContract() isValidAddr newRound public payable returns (string memory) {\n        \n        //if contract is in use, make sure it is player paying\n        if(_safeBalance > 0)\n            require(_player == msg.sender, \"Only Player can pay this contract.\");\n        \n        //make sure contract cannot accept more than ether limit\n        require((_safeBalance + msg.value) <= _ethLimit, \"Too much Ether!\");\n        \n        _safeBalance += msg.value;\n        _origBalance += msg.value;\n        \n        //Register player's address\n        _player = msg.sender;\n        \n        //log event    \n        emit PlayerDeposit(address(this), msg.sender, msg.value);\n        \n        _dMsg = \"Contract Paid.\";\n            \n        return _dMsg;\n    }\n\n\n    ///************show the 1st card of players*************///\n    function Playercard() public view returns (uint256) {\n        return _pCard1;\n    }\n\n    ///************show the 1st card of players*************///\n    function PlayerBet() public view returns (uint256) {\n        return _pBet;\n    }\n    \n    \n    ///*********************RNG************************///\n    //Generates a random number from 0 to 13 based on the last block hash\n    //11 = Joker, 12 = Queen, 13 = King, Each worth 10 points\n    //counter is added to \"now\" so that RNG doesnt produce same number if called twice in the same second\n    function RNG() internal returns (uint randomNumber) {\n        uint seed;\n        _rngCounter *= 2;\n        seed = now - _rngCounter;\n        _randNum = (uint(keccak256(abi.encodePacked(blockhash(block.number - 1), seed)))%13 + 1);\n        \n        //J, Q, K => 10\n        if(_randNum > 10)\n            _randNum = 10;\n            \n        //reset RNG counter to prevent unecessary large number and overflow\n        if(_rngCounter > 420000000)\n            _rngCounter = _randNum;\n            \n        return _randNum;\n    }\n    \n    \n    \n    ///-------------Game Interface-----------------///\n    \n    ///***************Place a bet**************///\n    //Limits: 1 wei - 1000 wei\n    function placeBet(uint256 bet) isValidAddr isPlayer newRound public returns (string memory) {\n        uint256 betEth;\n        \n        //only reset player's bet if not a double down or split or insurance bet\n        if(_dDown == false && _split == false && _insurance == false)\n            _pBet = 0;\n        \n        betEth = bet;\n        \n        //make sure bet is within Limits\n        require(betEth >= 1 wei && betEth <= 1000 wei, \"Bet Limits are 1 wei - 1000 wei.\");\n        \n        //make sure player can afford bet\n        require(betEth <= _safeBalance, \"Sorry, You don't have enough to place that bet.\");\n        \n        //update balance\n        _safeBalance -= betEth;\n        \n        //don't replace original bet with insurance bet\n        if(_insurance == false)\n            _pBet += betEth;\n        \n        //start round\n        _roundInProgress = true;\n        \n        //update game counter\n        _gamesPlayed += 1;\n        \n        //only deal cards if this is not a Double Down or split or insurance bet\n        if(_dDown == false && _split == false && _insurance == false)\n            return deal();\n        else {\n            //make sure player can only insure once\n            if(_insurance == true)\n                _insurance = false;\n            _dMsg = \"Bet Placed.\";\n            return _dMsg;\n        }\n    }\n    \n    \n    ///***********Cash Out**************///\n    function cashOut() isValidAddr isPlayer newRound \n        public \n        returns (string memory) {\n        \n        uint256 tempBalance = 0;\n        //if player lost money\n        if(_safeBalance <= _origBalance)\n            _dMsg = \"You would have lost Ether! Good thing I'm a generous smart contract. Original bet returned.\";\n        else\n            _dMsg = \"You are a worthy advesary! Original bet returned.\";\n        \n        //log event\n        emit PlayerWithdrawal(address(this), msg.sender, _origBalance);\n        \n        _safeBalance = 0;\n        tempBalance = _origBalance;\n        _origBalance = 0;\n        \n        //transfer funds\n        address(msg.sender).transfer(tempBalance);\n        \n        return _dMsg;\n    }\n    \n    \n    ///************deal cards**************///\n    function deal() internal returns (string memory) {\n        \n        //clear previous hand\n        _pCard1 = 0;\n        _pCard2 = 0;\n        _pNewCard = 0;\n        _pCardTotal = 0;\n        _pSplitTotal = 0;\n        _dCard1 = 0;\n        _dCard2 = 0;\n        _dNewCard[0] = 0;\n        _dNewCard[1] = 0;\n        _dCardTotal = 0;\n        _dDown = false;\n        _split = false;\n        _insurance = false;\n        _splitCount = 0;\n        \n        \n        //player card 1\n        _pCard1 = RNG();\n        //Ace\n        if(_pCard1 == 1)\n            _pCard1 = 11;\n        \n        //dealer card 1\n        _dCard1 = RNG();\n        \n        //player card 2\n        _pCard2 = RNG();\n        //Ace is 1 unless Player has a total less than 11\n        if(_pCard2 == 1 && _pCard1 < 11) {\n            //Ace = 11\n            _pCard2 = 11;\n        }\n        \n        //player's total\n        _pCardTotal = _pCard1 + _pCard2;\n        \n        //Insurance\n        if(_dCard1 == 1) {\n            _dMsg = \" --> Want Insurance?.\";\n            _dCard1 = 11;\n            _insurance = true;\n        }\n        \n        //dealer's total\n        _dCardTotal = _dCard1 + _dCard2;\n        \n        \n        //BlackJack - Natural (1.5*Bet returned to player)\n        if(_pCardTotal == 21) {\n            //if there might be a standoff\n            if(_dCard1 == 10) {\n                //show dealer's second card\n                _dCard2 = RNG();\n                //Ace is always 11 in this case\n                if(_dCard2 == 1) \n                    _dCard2 = 11;\n                \n                _dCardTotal = _dCard1 + _dCard2;\n            }\n            \n            //choose winner\n            if(_dCardTotal == _pCardTotal) {\n                _dMsg = \" --> StandOff!\";\n                //update balance: bet\n                _safeBalance += _pBet;\n                _roundInProgress = false;\n            }\n            else {\n                _dMsg = \" --> BlackJack! Player Wins.\";\n                //update balance: bet * 2.5 = original bet + bet * 1.5\n                _safeBalance += ((_pBet * 2) + (_pBet/2));\n                _roundInProgress = false;\n            }\n        }\n        //Normal turn\n        else\n            _dMsg = \" --> Player's Turn.\";\n        \n        //split\n        if(_pCard1 == _pCard2) {\n            if(_insurance == true)\n                _dMsg = \" --> Player's Turn. Want Insurance? Player can Split.\";\n            else\n                _dMsg = \" --> Player's Turn. Player can Split.\";\n            _split = true;\n        }\n        \n        //Double down - Reno Rule (9 or 10 or 11)\n        if(_pCardTotal == 9 || _pCardTotal == 10 || _pCardTotal == 11) {\n            if(_insurance == true) {\n                _dMsg = \" --> Player's Turn. Want Insurance? Player can Double Down.\";\n                if(_split == true)\n                    _dMsg = \" --> Player's Turn. Want Insurance? Player can Split or Double Down.\";\n            } else {\n                _dMsg = \" --> Player's Turn. Player can Double Down.\";\n                if(_split == true)\n                    _dMsg = \" --> Player's Turn. Player can Split or Double Down.\";\n            }\n            _dDown = true;\n        }\n        \n        return _dMsg;\n    }\n    \n    \n    ///***********************Hit*************************///\n    function hit() isValidAddr isPlayer playerTurn public returns (string memory) {\n        \n        //handle double down, Insurance and Splitting\n        dDownInsSplit();\n        \n        _pNewCard = RNG();\n        //Ace is 1 unless Player has a total less than 11\n        if(_pNewCard == 1 && _pCardTotal < 11) {\n            //Ace = 11\n            _pNewCard = 11;\n        }\n            \n        \n        //choose for 1st round winner during split\n        if(_splitting == true) {\n            _pSplitTotal += _pNewCard;\n            \n            //handle hit Win\n            hitWin(_pSplitTotal);\n            \n        } else {\n            //choose winner for normal play or second round during split\n            _pCardTotal += _pNewCard;\n            \n            //handle hit win\n            hitWin(_pCardTotal);\n        }\n        return _dMsg;\n        \n    }\n    \n    \n    ///*******************stand***********************///\n    function stand() isValidAddr isPlayer playerTurn public returns (string memory) {\n        \n        //handle double down, Insurance and Splitting\n        dDownInsSplit();\n        \n        //Dealer's turn\n        if(_splitCount < 2) {\n            //show Dealer Card 2\n            _dCard2 = RNG();\n            //Ace\n            if(_dCard2 == 1 && _dCard1 < 11) {\n                //Ace = 11\n                _dCard2 = 11;\n            }\n         \n            //update Dealer's card Total\n            _dCardTotal = _dCard1 + _dCard2;\n        \n            uint256 _dCardIndex = 0;        \n            //Dealer must Hit to 16 and Stand on all 17's\n            while(_dCardTotal < 17) {\n                _dNewCard[_dCardIndex] = RNG();\n                //Ace\n                if(_dNewCard[_dCardIndex] == 1 && _dCardTotal < 11) {\n                    //Ace = 11\n                    _dNewCard[_dCardIndex] = 11;\n                }\n                \n                _dCardTotal += _dNewCard[_dCardIndex];\n                _dCardIndex += 1;\n                if(_dCardIndex > 1)\n                    _dCardIndex = 0;\n            }\n        }\n        \n        //choose winner\n        if(_dCardTotal == 21) {\n            //for double down play \n            if(_pCardTotal == 21 || _pSplitTotal == 21) {\n                _dMsg = \" --> StandOff!\";\n                //update balance\n                _safeBalance += _pBet;\n            } else {\n                if(_splitting == true) {\n                    _splitCount += 1;\n                    _dMsg = \" --> Player's Turn.\";\n                }\n                else {\n                    _dMsg = \" --> BlackJack! Dealer Wins.\";\n                    _roundInProgress = false;\n                    if(_insured == true) {\n                        _insured = false;\n                        //bet has doubled so insurance is 1/2 * bet\n                        _safeBalance += (_pBet/2);\n                    }\n                }\n            }\n            \n            \n        } else if(_dCardTotal > 21) {\n            if(_splitting == true) {\n                _splitCount += 1;\n                _dMsg = \" --> Player's Turn.\";\n                //update balance\n                _safeBalance += (_pBet * 2);\n            }\n            else {\n                _dMsg = \" --> Dealer Bust. Player Wins.\";\n                //update balance: bet * 2\n                _safeBalance += (_pBet * 2);\n                _roundInProgress = false;\n            }\n            \n            \n        } else {\n            if(_pCardTotal <= 21) {\n                //if dealer wins\n                if((21 - _dCardTotal) < (21 - _pCardTotal)) {\n                    if(_splitting == true) {\n                        _splitCount += 1;\n                        _dMsg = \" --> Player's Turn.\";\n                    }\n                    else {\n                        _dMsg = \" --> Dealer Wins.\";\n                        _roundInProgress = false;\n                    }\n                //if player wins\n                } else if((21 - _dCardTotal) > (21 - _pCardTotal)) {\n                    if(_splitting == true) {\n                        _splitCount += 1;\n                        _dMsg = \" --> Player's Turn.\";\n                        //update balance\n                        _safeBalance += (_pBet * 2);\n                    }\n                    else {\n                        _dMsg = \" --> Player Wins.\";\n                        //update balance: bet * 2\n                        _safeBalance += (_pBet * 2);\n                        _roundInProgress = false;\n                    }\n                //if its a standoff\n                } else {\n                    if(_splitting == true) {\n                        _splitCount += 1;\n                        _dMsg = \" --> Player's Turn.\";\n                        //update balance\n                        _safeBalance += _pBet;\n                    }\n                    else {\n                        _dMsg = \" --> StandOff!\";\n                        //end round\n                        _roundInProgress = false;\n                        //update balance: bet\n                        _safeBalance += _pBet;\n                    }\n                }\n            //player card can only be greater than 21 on double down hand\n            } else {\n                _dMsg = \" --> Player Bust! Dealer Wins.\";\n            }\n        }\n        \n        return _dMsg;\n    }\n    \n    \n    ///*********************Double Down*************************///\n    function doubleDown() isValidAddr isPlayer playerTurn \n        public returns (string memory) {\n        //make sure player can double down\n        require(_dDown == true, \"Player cannot Double Down right now.\");\n        \n        //if player has a chance to split but doubles down\n        if(_split == true) {\n            //remove chance to split\n            _split = false;\n        }\n        //if player has a chance to get insurance but doesn't\n        if(_insurance == true) {\n            //remove chance to get insurance\n            _insurance = false;\n        }\n        \n        //place same amount as original Bet\n        uint256 bet = _pBet; \n        \n        // //convert bet back to wei for testing\n        // bet /= 1000000000000000000;\n        \n        //pause game to place Bet\n        _roundInProgress = false;\n        \n        //place Bet and resume game\n        placeBet(bet);\n        \n        //deal extra card\n        _pNewCard = RNG();\n        //Ace is 1 unless Player has a total less than 11\n        if(_pNewCard == 1 && _pCardTotal < 11) {\n            //Ace = 11\n            _pNewCard = 11;\n        }\n        \n        //update player's card total\n        _pCardTotal += _pNewCard;\n        \n        //let dealer finish his hand and end round\n        return stand();\n    }\n    \n    \n    ///************************Split*****************************///\n    function split() isValidAddr isPlayer playerTurn public returns (string memory) {\n        //make sure player can double down\n        require(_split == true, \"Player cannot Split right now.\");\n        \n        //if player has a chance to double down but splits\n        if(_dDown == true) {\n            //remove chance to double down\n            _dDown = false;\n        }\n        //if player has a chance to get insurance but doesn't\n        if(_insurance == true) {\n            //remove chance to get insurance\n            _insurance = false;\n        }\n        \n        //update balances\n        if(_pCard1 == 11) {\n            _pCardTotal = 11;\n            _pSplitTotal = 11;\n        }\n        else {\n            _pCardTotal = _pCardTotal/2;\n            _pSplitTotal = _pCardTotal;\n        }\n        \n        //place same amount as original Bet\n        uint256 bet = _pBet;\n        \n        //pause game to place Bet\n        _roundInProgress = false;\n        \n        //place Bet and resume game\n        placeBet(bet);\n        \n        //turn splitting on\n        _splitting = true;\n        \n        //turn chance to split again off\n        _split = false;\n        \n        //If player's cards are both Aces\n        if(_pCard1 == 11) {\n            //deal only one more card for card 1\n            _pNewCard = RNG();\n            //Ace is always 1 in this case \n            \n            //update split card total\n            _pSplitTotal += _pNewCard;\n            \n            //then stand\n            stand();\n            \n            //turn splitting off\n            _splitting = false;\n            //make sure dealer doesn't draw again\n            _splitCount = 2;\n            \n            //deal only one more card for card 2\n            _pNewCard = RNG();\n            //Ace is always 1 in this case \n            \n            //update player split total\n            _pCardTotal += _pNewCard;\n            \n            //then stand\n            stand();\n        }\n    }\n    \n    \n    ///********************Insurance*********************///\n    function insurance() isValidAddr isPlayer playerTurn \n        public returns (string memory) {\n        //make sure player can have insurance\n        require(_insurance == true, \"Player cannot have insurance right now.\");\n        \n        //place half amount as original Bet\n        uint256 bet = _pBet/2; \n        \n        //insure\n        _insured = true;\n        \n        //pause game to place Bet\n        _roundInProgress = false;\n        \n        //place Bet and resume game\n        placeBet(bet);\n        \n    }\n    \n\n    ///***************dDownInsSplit***************///\n    //handle double down, Insurance and split chances\n    //for hit and stand functions\n    function dDownInsSplit() internal {\n        //if player has a chance to double down but hits\n        if(_dDown == true) {\n            //remove chance to double down\n            _dDown = false;\n        }\n        \n        //if player has a chance to split \n        if(_split == true || _splitting == true) {\n            if(_splitCount >= 2) {\n                //remove chance to split after splitting\n                _splitting = false;\n                _split = false;\n            }\n            else if(_splitting == true) {\n                //start split counter if player is splitting\n                _splitCount = 1;\n            } else {\n            \n                //if not splitting, remove chance to split\n                _split = false;\n            }\n        }\n        \n        //if player has a chance to get insurance but hits\n        if(_insurance == true) {\n            //remove chance to get insurance\n            _insurance = false;\n        }\n    }\n    \n    \n    ///***************hitWin*****************///\n    //handle checking for winner for hit function\n    function hitWin(uint256 _cTotal) internal {\n        \n        //BlackJack or bust\n        if(_cTotal == 21) {\n            //if there might be a standoff\n            if(_dCard1 >= 10) {\n                //show dealer's second card\n                _dCard2 = RNG();\n                //update dealer card total\n                _dCardTotal = _dCard1 + _dCard2;\n            }\n            \n            //choose winner\n            if(_dCardTotal == _cTotal) {\n                _dMsg = \" --> StandOff!\";\n                //update balance\n                if(_insured == true) {\n                    _insured = false;\n                    _safeBalance += (_pBet/2);\n                }\n                _safeBalance += _pBet;\n                _roundInProgress = false;\n            }\n            else {\n                _dMsg = \" --> BlackJack! Player Wins.\";\n                //update balance: bet * 2\n                _safeBalance += (_pBet * 2);\n                _roundInProgress = false;\n            }\n        } else if(_cTotal > 21) {\n            _dMsg = \" --> Player Bust! Dealer Wins.\";\n            \n            //if player was insured\n            if(_insured == true) {\n                _insured = false;\n                //show dealer's second card\n                _dCard2 = RNG();\n                //update dealer card total\n                _dCardTotal = _dCard1 + _dCard2;\n                //update balance\n                if(_dCardTotal == 21)\n                    _safeBalance += _pBet;\n            }\n            _roundInProgress = false; \n        }\n        else\n            _dMsg = \" --> Player's Turn.\";\n        \n    }\n    \n    \n    ///********************show the table***********************///\n    function displayTable() \n        public \n        view \n        returns (string memory Message, uint256 PlayerBet, uint256 PlayerCard1, uint256 PlayerCard2,\n                    uint256 PlayerNewCard, uint256 PlayerCardTotal, uint256 PlayerSplitTotal, \n                    uint256 DealerCard1, uint256 DealerCard2, uint256 DealerNewCard1, \n                    uint256 DealerNewCard2, uint256 DealerCardTotal, uint256 Pot) {\n                        \n            \n        return (_dMsg, _pBet, _pCard1, _pCard2, _pNewCard, _pCardTotal, _pSplitTotal, \n            _dCard1, _dCard2, _dNewCard[0], _dNewCard[1], _dCardTotal, _safeBalance);\n    }\n\n\n\n\n    \n}\n",
  "sourcePath": "/Users/jessieliu/Desktop/BlackJack-master/contracts/BlackJack.sol",
  "compiler": {
    "name": "solc",
    "version": "0.5.16+commit.9c3226ce.Emscripten.clang"
  },
  "schemaVersion": "3.3.3",
  "updatedAt": "2021-04-18T21:10:29.061Z",
  "networkType": "ethereum",
  "devdoc": {
    "methods": {}
  },
  "userdoc": {
    "methods": {
      "Initial(uint256)": {
        "notice": "*********************initial the game***********************///"
      },
      "PlayerBet()": {
        "notice": "************show the 1st card of players*************///"
      },
      "Playercard()": {
        "notice": "************show the 1st card of players*************///"
      },
      "cashOut()": {
        "notice": "***********Cash Out**************///"
      },
      "constructor": "******constructor********///",
      "displayTable()": {
        "notice": "********************show the table***********************///"
      },
      "doubleDown()": {
        "notice": "*********************Double Down*************************///"
      },
      "hit()": {
        "notice": "***********************Hit*************************///"
      },
      "insurance()": {
        "notice": "********************Insurance*********************///"
      },
      "payContract()": {
        "notice": "************pay the contract*************///"
      },
      "placeBet(uint256)": {
        "notice": "-------------Game Interface-----------------/// ***************Place a bet**************///"
      },
      "split()": {
        "notice": "************************Split*****************************///"
      },
      "stand()": {
        "notice": "*******************stand***********************///"
      }
    }
  }
}